{
  "_format": "hh-sol-artifact-1",
  "contractName": "VotePool",
  "sourceName": "contracts/VotePool.sol",
  "abi": [
    {
      "inputs": [
        {
          "internalType": "string[]",
          "name": "proposalNames",
          "type": "string[]"
        }
      ],
      "stateMutability": "nonpayable",
      "type": "constructor"
    },
    {
      "inputs": [],
      "name": "cancelVote",
      "outputs": [],
      "stateMutability": "nonpayable",
      "type": "function"
    },
    {
      "inputs": [],
      "name": "closeVoting",
      "outputs": [],
      "stateMutability": "nonpayable",
      "type": "function"
    },
    {
      "inputs": [
        {
          "internalType": "uint256",
          "name": "index",
          "type": "uint256"
        }
      ],
      "name": "getProposal",
      "outputs": [
        {
          "internalType": "string",
          "name": "name",
          "type": "string"
        },
        {
          "internalType": "uint256",
          "name": "voteCount",
          "type": "uint256"
        }
      ],
      "stateMutability": "view",
      "type": "function"
    },
    {
      "inputs": [],
      "name": "getProposalCount",
      "outputs": [
        {
          "internalType": "uint256",
          "name": "",
          "type": "uint256"
        }
      ],
      "stateMutability": "view",
      "type": "function"
    },
    {
      "inputs": [],
      "name": "getWinningProposal",
      "outputs": [
        {
          "internalType": "string",
          "name": "winnerName",
          "type": "string"
        }
      ],
      "stateMutability": "view",
      "type": "function"
    },
    {
      "inputs": [
        {
          "internalType": "address",
          "name": "",
          "type": "address"
        }
      ],
      "name": "hasVoted",
      "outputs": [
        {
          "internalType": "bool",
          "name": "",
          "type": "bool"
        }
      ],
      "stateMutability": "view",
      "type": "function"
    },
    {
      "inputs": [],
      "name": "owner",
      "outputs": [
        {
          "internalType": "address",
          "name": "",
          "type": "address"
        }
      ],
      "stateMutability": "view",
      "type": "function"
    },
    {
      "inputs": [
        {
          "internalType": "uint256",
          "name": "",
          "type": "uint256"
        }
      ],
      "name": "proposals",
      "outputs": [
        {
          "internalType": "string",
          "name": "name",
          "type": "string"
        },
        {
          "internalType": "uint256",
          "name": "voteCount",
          "type": "uint256"
        }
      ],
      "stateMutability": "view",
      "type": "function"
    },
    {
      "inputs": [
        {
          "internalType": "uint256",
          "name": "proposalIndex",
          "type": "uint256"
        }
      ],
      "name": "vote",
      "outputs": [],
      "stateMutability": "nonpayable",
      "type": "function"
    },
    {
      "inputs": [
        {
          "internalType": "address",
          "name": "",
          "type": "address"
        }
      ],
      "name": "votedFor",
      "outputs": [
        {
          "internalType": "uint256",
          "name": "",
          "type": "uint256"
        }
      ],
      "stateMutability": "view",
      "type": "function"
    },
    {
      "inputs": [],
      "name": "votingOpen",
      "outputs": [
        {
          "internalType": "bool",
          "name": "",
          "type": "bool"
        }
      ],
      "stateMutability": "view",
      "type": "function"
    }
  ],
  "bytecode": "0x608060405234801561001057600080fd5b5060405161170138038061170183398181016040528101906100329190610385565b336000806101000a81548173ffffffffffffffffffffffffffffffffffffffff021916908373ffffffffffffffffffffffffffffffffffffffff1602179055506001600060146101000a81548160ff02191690831515021790555060005b815181101561012357600160405180604001604052808484815181106100b9576100b86103ce565b5b60200260200101518152602001600081525090806001815401808255809150506001900390600052602060002090600202016000909190919091506000820151816000019081610109919061061e565b506020820151816001015550508080600101915050610090565b50506106f0565b6000604051905090565b600080fd5b600080fd5b600080fd5b6000601f19601f8301169050919050565b7f4e487b7100000000000000000000000000000000000000000000000000000000600052604160045260246000fd5b61018c82610143565b810181811067ffffffffffffffff821117156101ab576101aa610154565b5b80604052505050565b60006101be61012a565b90506101ca8282610183565b919050565b600067ffffffffffffffff8211156101ea576101e9610154565b5b602082029050602081019050919050565b600080fd5b600080fd5b600067ffffffffffffffff8211156102205761021f610154565b5b61022982610143565b9050602081019050919050565b60005b83811015610254578082015181840152602081019050610239565b60008484015250505050565b600061027361026e84610205565b6101b4565b90508281526020810184848401111561028f5761028e610200565b5b61029a848285610236565b509392505050565b600082601f8301126102b7576102b661013e565b5b81516102c7848260208601610260565b91505092915050565b60006102e36102de846101cf565b6101b4565b90508083825260208201905060208402830185811115610306576103056101fb565b5b835b8181101561034d57805167ffffffffffffffff81111561032b5761032a61013e565b5b80860161033889826102a2565b85526020850194505050602081019050610308565b5050509392505050565b600082601f83011261036c5761036b61013e565b5b815161037c8482602086016102d0565b91505092915050565b60006020828403121561039b5761039a610134565b5b600082015167ffffffffffffffff8111156103b9576103b8610139565b5b6103c584828501610357565b91505092915050565b7f4e487b7100000000000000000000000000000000000000000000000000000000600052603260045260246000fd5b600081519050919050565b7f4e487b7100000000000000000000000000000000000000000000000000000000600052602260045260246000fd5b6000600282049050600182168061044f57607f821691505b60208210810361046257610461610408565b5b50919050565b60008190508160005260206000209050919050565b60006020601f8301049050919050565b600082821b905092915050565b6000600883026104ca7fffffffffffffffffffffffffffffffffffffffffffffffffffffffffffffffff8261048d565b6104d4868361048d565b95508019841693508086168417925050509392505050565b6000819050919050565b6000819050919050565b600061051b610516610511846104ec565b6104f6565b6104ec565b9050919050565b6000819050919050565b61053583610500565b61054961054182610522565b84845461049a565b825550505050565b600090565b61055e610551565b61056981848461052c565b505050565b5b8181101561058d57610582600082610556565b60018101905061056f565b5050565b601f8211156105d2576105a381610468565b6105ac8461047d565b810160208510156105bb578190505b6105cf6105c78561047d565b83018261056e565b50505b505050565b600082821c905092915050565b60006105f5600019846008026105d7565b1980831691505092915050565b600061060e83836105e4565b9150826002028217905092915050565b610627826103fd565b67ffffffffffffffff8111156106405761063f610154565b5b61064a8254610437565b610655828285610591565b600060209050601f8311600181146106885760008415610676578287015190505b6106808582610602565b8655506106e8565b601f19841661069686610468565b60005b828110156106be57848901518255600182019150602085019450602081019050610699565b868310156106db57848901516106d7601f8916826105e4565b8355505b6001600288020188555050505b505050505050565b611002806106ff6000396000f3fe608060405234801561001057600080fd5b50600436106100a95760003560e01c8063a513462011610071578063a513462014610153578063a95824b414610171578063c08cc02d1461018f578063c631b292146101ad578063c7f758a8146101b7578063f594f13f146101e8576100a9565b80630121b93f146100ae578063013cf08b146100ca57806309eef43e146100fb5780638da5cb5b1461012b57806395c9655414610149575b600080fd5b6100c860048036038101906100c391906109fa565b610218565b005b6100e460048036038101906100df91906109fa565b6103d2565b6040516100f2929190610ac6565b60405180910390f35b61011560048036038101906101109190610b54565b61048e565b6040516101229190610b9c565b60405180910390f35b6101336104ae565b6040516101409190610bc6565b60405180910390f35b6101516104d2565b005b61015b6106e4565b6040516101689190610be1565b60405180910390f35b610179610815565b6040516101869190610b9c565b60405180910390f35b610197610828565b6040516101a49190610c03565b60405180910390f35b6101b5610835565b005b6101d160048036038101906101cc91906109fa565b6108df565b6040516101df929190610ac6565b60405180910390f35b61020260048036038101906101fd9190610b54565b6109a7565b60405161020f9190610c03565b60405180910390f35b600060149054906101000a900460ff16610267576040517f08c379a000000000000000000000000000000000000000000000000000000000815260040161025e90610c6a565b60405180910390fd5b600260003373ffffffffffffffffffffffffffffffffffffffff1673ffffffffffffffffffffffffffffffffffffffff16815260200190815260200160002060009054906101000a900460ff16156102f4576040517f08c379a00000000000000000000000000000000000000000000000000000000081526004016102eb90610cd6565b60405180910390fd5b600180549050811061033b576040517f08c379a000000000000000000000000000000000000000000000000000000000815260040161033290610d42565b60405180910390fd5b60018082815481106103505761034f610d62565b5b906000526020600020906002020160010160008282546103709190610dc0565b925050819055506001600260003373ffffffffffffffffffffffffffffffffffffffff1673ffffffffffffffffffffffffffffffffffffffff16815260200190815260200160002060006101000a81548160ff02191690831515021790555050565b600181815481106103e257600080fd5b906000526020600020906002020160009150905080600001805461040590610e23565b80601f016020809104026020016040519081016040528092919081815260200182805461043190610e23565b801561047e5780601f106104535761010080835404028352916020019161047e565b820191906000526020600020905b81548152906001019060200180831161046157829003601f168201915b5050505050908060010154905082565b60026020528060005260406000206000915054906101000a900460ff1681565b60008054906101000a900473ffffffffffffffffffffffffffffffffffffffff1681565b600260003373ffffffffffffffffffffffffffffffffffffffff1673ffffffffffffffffffffffffffffffffffffffff16815260200190815260200160002060009054906101000a900460ff1661055e576040517f08c379a000000000000000000000000000000000000000000000000000000000815260040161055590610ea0565b60405180910390fd5b6000600360003373ffffffffffffffffffffffffffffffffffffffff1673ffffffffffffffffffffffffffffffffffffffff1681526020019081526020016000205490506000600182815481106105b8576105b7610d62565b5b9060005260206000209060020201600101541161060a576040517f08c379a000000000000000000000000000000000000000000000000000000000815260040161060190610f0c565b60405180910390fd5b600180828154811061061f5761061e610d62565b5b9060005260206000209060020201600101600082825461063f9190610f2c565b925050819055506000600260003373ffffffffffffffffffffffffffffffffffffffff1673ffffffffffffffffffffffffffffffffffffffff16815260200190815260200160002060006101000a81548160ff021916908315150217905550600360003373ffffffffffffffffffffffffffffffffffffffff1673ffffffffffffffffffffffffffffffffffffffff1681526020019081526020016000206000905550565b606060008060005b60018054905081101561075f57826001828154811061070e5761070d610d62565b5b9060005260206000209060020201600101541115610752576001818154811061073a57610739610d62565b5b90600052602060002090600202016001015492508091505b80806001019150506106ec565b506001818154811061077457610773610d62565b5b9060005260206000209060020201600001805461079090610e23565b80601f01602080910402602001604051908101604052809291908181526020018280546107bc90610e23565b80156108095780601f106107de57610100808354040283529160200191610809565b820191906000526020600020905b8154815290600101906020018083116107ec57829003601f168201915b50505050509250505090565b600060149054906101000a900460ff1681565b6000600180549050905090565b60008054906101000a900473ffffffffffffffffffffffffffffffffffffffff1673ffffffffffffffffffffffffffffffffffffffff163373ffffffffffffffffffffffffffffffffffffffff16146108c3576040517f08c379a00000000000000000000000000000000000000000000000000000000081526004016108ba90610fac565b60405180910390fd5b60008060146101000a81548160ff021916908315150217905550565b6060600080600184815481106108f8576108f7610d62565b5b9060005260206000209060020201905080600001816001015481805461091d90610e23565b80601f016020809104026020016040519081016040528092919081815260200182805461094990610e23565b80156109965780601f1061096b57610100808354040283529160200191610996565b820191906000526020600020905b81548152906001019060200180831161097957829003601f168201915b505050505091509250925050915091565b60036020528060005260406000206000915090505481565b600080fd5b6000819050919050565b6109d7816109c4565b81146109e257600080fd5b50565b6000813590506109f4816109ce565b92915050565b600060208284031215610a1057610a0f6109bf565b5b6000610a1e848285016109e5565b91505092915050565b600081519050919050565b600082825260208201905092915050565b60005b83811015610a61578082015181840152602081019050610a46565b60008484015250505050565b6000601f19601f8301169050919050565b6000610a8982610a27565b610a938185610a32565b9350610aa3818560208601610a43565b610aac81610a6d565b840191505092915050565b610ac0816109c4565b82525050565b60006040820190508181036000830152610ae08185610a7e565b9050610aef6020830184610ab7565b9392505050565b600073ffffffffffffffffffffffffffffffffffffffff82169050919050565b6000610b2182610af6565b9050919050565b610b3181610b16565b8114610b3c57600080fd5b50565b600081359050610b4e81610b28565b92915050565b600060208284031215610b6a57610b696109bf565b5b6000610b7884828501610b3f565b91505092915050565b60008115159050919050565b610b9681610b81565b82525050565b6000602082019050610bb16000830184610b8d565b92915050565b610bc081610b16565b82525050565b6000602082019050610bdb6000830184610bb7565b92915050565b60006020820190508181036000830152610bfb8184610a7e565b905092915050565b6000602082019050610c186000830184610ab7565b92915050565b7f566f74696e6720697320636c6f73656400000000000000000000000000000000600082015250565b6000610c54601083610a32565b9150610c5f82610c1e565b602082019050919050565b60006020820190508181036000830152610c8381610c47565b9050919050565b7f416c726561647920766f74656400000000000000000000000000000000000000600082015250565b6000610cc0600d83610a32565b9150610ccb82610c8a565b602082019050919050565b60006020820190508181036000830152610cef81610cb3565b9050919050565b7f496e76616c69642070726f706f73616c00000000000000000000000000000000600082015250565b6000610d2c601083610a32565b9150610d3782610cf6565b602082019050919050565b60006020820190508181036000830152610d5b81610d1f565b9050919050565b7f4e487b7100000000000000000000000000000000000000000000000000000000600052603260045260246000fd5b7f4e487b7100000000000000000000000000000000000000000000000000000000600052601160045260246000fd5b6000610dcb826109c4565b9150610dd6836109c4565b9250828201905080821115610dee57610ded610d91565b5b92915050565b7f4e487b7100000000000000000000000000000000000000000000000000000000600052602260045260246000fd5b60006002820490506001821680610e3b57607f821691505b602082108103610e4e57610e4d610df4565b5b50919050565b7f4e6f20766f746520746f2063616e63656c000000000000000000000000000000600082015250565b6000610e8a601183610a32565b9150610e9582610e54565b602082019050919050565b60006020820190508181036000830152610eb981610e7d565b9050919050565b7f4e6f20766f74657320746f2072656d6f76650000000000000000000000000000600082015250565b6000610ef6601283610a32565b9150610f0182610ec0565b602082019050919050565b60006020820190508181036000830152610f2581610ee9565b9050919050565b6000610f37826109c4565b9150610f42836109c4565b9250828203905081811115610f5a57610f59610d91565b5b92915050565b7f4e6f7420746865206f776e657200000000000000000000000000000000000000600082015250565b6000610f96600d83610a32565b9150610fa182610f60565b602082019050919050565b60006020820190508181036000830152610fc581610f89565b905091905056fea26469706673582212202b333d704dacfb3a9229e4dfb5d89a0f2c30ea7ba5f7c21498e6a00bc88b4eb364736f6c634300081c0033",
  "linkReferences": {},
  "deployedLinkReferences": {}
}